:020000020000FC
:040000000C943E001E
:100078000C948F000FEF0DBF00E10EBF0FEF0ABB0E
:1000880004BB0E947D000E948A0022273327442750
:100098005527662777278827992778940C94540042
:1000A80000E005BB1BBB0E949A0001E005BB2BBB0F
:1000B8000E949A0002E005BB3BBB0E949A0003E045
:1000C80005BB4BBB0E949A0004E005BB5BBB0E94CA
:1000D8009A0005E005BB6BBB0E949A0006E005BBD1
:1000E8007BBB0E949A0007E005BB8BBB0E949A006D
:1000F800D7CF00E00093980007E60093990000E945
:1001080000939A0006E000939D0008950DE003BF58
:100118000FEF01BF089500919C00872F762F652F60
:10012800542F432F322F212F102F189506BF06B7B3
:0A01380001FF0C949B0006BF089520
:00000001FF
