:020000020000FC
:100000007FEF7DBF70E17EBF7FE077BB7FEF72B98E
:100010007FEF73B9A0E0B1E066E0EEE6F0E0759145
:100020007D936A95E1F7A0E0B1E0E4E7F0E063E0FA
:100030000D912D9108BB0E942D000591159176B36D
:10004000701711F40C942A002A95B9F76A9581F774
:100050000C94130013B90C9424007DE073BF70E678
:1000600071BF76B771FF0C94310076BF0895FE031F
:10007000FD04FB03EEFEDEF7BEBFEDFDDDEFBD7F51
:080080007DFFEBFBDBDFBB00A1
:00000001FF
