:020000020000FC
:040000000C9420003C
:040024000C946D00CB
:10003C000C9460000FEF0DBF00E10EBF0FEF02B983
:10004C000FE007BB0E9484000E9492000E949C005B
:10005C00C0E0D3E05527442778940C94350040FD3C
:10006C000C943500A0E0B1E0E4E9F1E013E02D914F
:10007C006D9128BB0E94A6002591359106B30217FD
:10008C0011F40C944F006A95B9F71A9581F70C94FA
:10009C003500393911F40C945700399353950C945D
:1000AC004900A0E0B3E0CDE2D5E041E015E06AE71D
:1000BC000C94350040FF0C9483006A95F1F46AE7C8
:1000CC000D915A95D1F440E055270C94830040FFD4
:1000DC000C94830000E803B90000099103B90000F7
:1000EC001A9559F415E000E803B91A95E1F70C914B
:1000FC00C02FD5E015E00C94830018950FE003BFDA
:10010C000FEF01BF02E00C948B000DE005BD09EB75
:10011C0003BD02E807BF0895A0E0B5E0ECE5F1E00F
:10012C0012E305910D931A95E1F70895A0E0B1E063
:10013C00EEE8F1E016E005910D931A95E1F70895BC
:10014C007AE28EE88A95F1F77A95E1F70000089546
:10015C007B7D007F7F391E2E36395D3636364973EE
:10016C0075007777503636364E413636364D3E5E14
:10017C006E7678493636364959363636417F7F7F2A
:10018C007F7FFE03FD04FB03EE00DE05BE0AED0FD0
:0A019C00DD14BD19EB23DB28BB992D
:00000001FF
