:020000020000FC
:040000000C9420003C
:10003C000C945E000FEF0DBF00E10EBF0FEF04BB81
:10004C000FE001BB0E9478000E947D000E94870097
:10005C00C0E0D3E0552778940C94340040FD0C9408
:10006C003400A0E0B1E0E2E4F1E013E02D916D91F9
:10007C0022BB0E9491002591359100B3021711F417
:10008C000C944E006A95B9F71A9581F70C943400CC
:10009C00333611F40C945600399353950C94480054
:1000AC00A0E0A3E0C2E0D4E0539541E00C9434000E
:1000BC0040FF0C94770000E805BB0000099105BBDC
:1000CC001A9579F414E000E805BB1A95E1F70D9147
:1000DC00C02FD4E015E05A9521F440E0C0E0D3E005
:1000EC00189518950DE003BF09EB01BF0895A0E02A
:1000FC00B4E0E0E3F1E01AE005910D931A95E1F715
:10010C000895A0E0B1E0E2E4F1E013E005910D9375
:10011C001A95E1F7089506BF06B701FF0C949200FB
:10012C0006BF0895780F780F78000F780F780F00BE
:10013C00FE03FD04FB03EE00DE05BE0AED0FDD142D
:0A014C00BD197D1EEB23DB28BB2D3F
:00000001FF
