:020000020000FC
:100000000C9402000FEF0DBF00E10EBF0FEF04BB19
:100010000FE001BB0E9422000E94270078940C94FC
:100020001100E0E7F0E025E000E005BB00000591ED
:1000300005BB0E94310000E805BB00002A95A1F72E
:100040000C9411000DE003BF09EB01BF0895A0E07F
:10005000B1E0E0E7F0E020E105910D932A95E1F7AA
:10006000089506BF06B701FF0C94320006BF08953D
:10007000780F780F78000F780F780F000F780F78CF
:020080000F006F
:00000001FF
