:020000020000FC
:100000007FEF7DBF70E17EBF7FE077BB7FEF7ABB84
:1000100074BBA0E0B1E066E0EAEBF0E02227332712
:100020004427552775917D936A95E1F7A0E0B1E0EB
:10003000E0ECF0E063E0FD901D91F8BA0E94490009
:10004000F590059176B37F1511F40C94410000E012
:1000500005BB2BBB0E94530001E005BB3BBB0E94CC
:10006000530002E005BB4BBB0E94530003E005BBFD
:100070005BBB0E9453001A9519F76A95E1F60C9440
:100080001600201721F3542F432F322F202F0C94CA
:1000900027007DE073BF70E671BF76B771FF0C94E7
:1000A0004D0076BF08957DE073BF7FEF71BF76B7D7
:1000B00071FF0C94570076BF0895FE03FD04FB0307
:1000C000EE60DE66BEE0EDDADDB6BDFE7DFCEBF295
:0400D000DBBEBBF6E2
:00000001FF
