:020000020000FC
:100000000FEF0DBF00E10EBF0FE001BB00E007BB2B
:1000100061E052E306B30717D9F300FF62E002FF85
:1000200054E60C941300613011F00C941B00E8E8C6
:10003000F0E00C941F00ECE8F0E00C941F00059138
:1000400002BB0E943400059102BB0E94340005915E
:1000500002BB0E943400049102BB0E9434005A95F6
:1000600011F776B30C94080006B344E001FF46E0B4
:100070000DE003BF0FEF01BF06B701FF0C943C007A
:1000800006BF4A95A9F70895010402080802040171
:00000001FF
