:020000020000FC
:040000000C94140048
:100024000C9453000FEF0DBF00E10EBF0FEF02B9A8
:100034000FE007BB0E9473000E9480000E948A00A8
:10004400C0E0D3E05527442778940C94290040FD60
:100054000C942900A0E0B1E0EEE7F1E013E02D916B
:100064006D9128BB0E9494002591359106B3021727
:1000740011F40C9443006A95B9F71A9581F70C941E
:100084002900393911F40C944B00399353950C948D
:100094003D00A0E0B3E0CDE2D4E041E061E00C94A7
:1000A400290040FF0C94720000E803B90000099194
:1000B40003B91A95A9F40C91C02FD4E06A9581F480
:1000C4006FEF14E000E803B91A95E1F70D91C02F22
:1000D400D4E015E05A9521F440E0C0E0D3E018954F
:1000E40018950DE003BF0FEF01BF0C9479000DE0EC
:1000F40005BD09EB03BD00E807BF0895A0E0B4E027
:10010400E6E4F1E012E305910D931A95E1F7089501
:10011400A0E0B1E0E8E7F1E016E005910D931A954F
:10012400E1F7089506BF06B701FF0C94950006BFDA
:10013400089506BF06B701FF0C949C001A95C9F7F1
:1001440008957E7E7E7E7E3F3F3F3F3F7C7C7C7C6D
:100154007C1F1F1F1F1F78787878780F0F0F0F0FE1
:100164007070707070070707070760606060607FD9
:100174007F7F7F7FFE03FD04FB03EE00DE05BE0AE6
:0C018400ED0FDD14BD19EB23DB28BB9947
:00000001FF
