:020000020000FC
:040000000C9420003C
:040024000C946D00CB
:10003C000C9460000FEF0DBF00E10EBF0FEF02B983
:10004C000FE007BB0E9484000E9493000E949D0059
:10005C00C0E0D3E05527442778940C94350040FD3C
:10006C000C943500A0E0B1E0E6E9F1E013E02D914D
:10007C006D9128BB0E94A7002591359106B30217FC
:10008C0011F40C944F006A95B9F71A9581F70C94FA
:10009C003500393911F40C945700399353950C945D
:1000AC004900A0E0B3E0CDE2D5E041E015E06AE71D
:1000BC000C94350040FF0C9483006A95F1F46AE7C8
:1000CC000D915A95D1F440E055270C94830040FFD4
:1000DC000C94830000E803B90000099103B90000F7
:1000EC001A9559F415E000E803B91A95E1F70C914B
:1000FC00C02FD5E015E00C94830018950FE003BFDA
:10010C000FEF01BF02E00C948B0007B70DE005BDAB
:10011C0009EB03BD02E807BF0895A0E0B5E0EEE5EA
:10012C00F1E012E305910D931A95E1F70895A0E023
:10013C00B1E0E0E9F1E016E005910D931A95E1F7D5
:10014C0008957AE28EE88A95F1F77A95E1F7000046
:10015C0008957E7E7E7E7E3F3F3F3F3F7C7C7C7C55
:10016C007C1F1F1F1F1F78787878780F0F0F0F0FC9
:10017C007070707070070707070760606060607FC1
:10018C007F7F7F7FFE03FD04FB03EE00DE05BE0ACE
:0C019C00ED0FDD14BD19EB23DB28BB992F
:00000001FF
