:020000020000FC
:040000000C943E001E
:100078000C948F000FEF0DBF00E10EBF0FEF07BB11
:1000880001BB0E947D000E948A0022273327442753
:100098005527662777278827992778940C94540042
:1000A80003E002BB28BB0E949A0002E002BB38BBF7
:1000B8000E949A0001E002BB48BB0E949A0000E03F
:1000C80002BB58BB0E949A0004E002BB68BB0E94B6
:1000D8009A0005E002BB78BB0E949A0006E002BBCA
:1000E80088BB0E949A0007E002BB98BB0E949A0056
:1000F800D7CF00E00093980007E60093990008E93D
:1001080000939A0006E000939D0008950DE003BF58
:100118000FEF01BF089500919C00982F872F762F2D
:10012800652F542F432F322F202F189506BF06B75F
:0A01380001FF0C949B0006BF089520
:00000001FF
